S01400004175726F7261436C6F636B382E7372656382
S1130000A2C2BCC2BBC2BAC2B9C2B8C2B7C2B6C22B
S1130010B5C262C6B3C2B2C2B1C2B0C2AFC2AEC28E
S1130020ADC2ACC2ABC20000000000000000000082
S113003000000100010001000100020002000200B2
S11300400300030004000400050005000600060088
S113005007000800080009000A000B000B000C0050
S11300600D000E000F001000110012001300140008
S113007016001700180019001A001C001D001E00AD
S113008020002100230024002600270029002B0043
S11300902C002E00300031003300350037003900C9
S11300A03B003C003E004000420045004700490040
S11300B04B004D004F0052005400560058005B00A6
S11300C05D0060006200650067006A006C006F00FC
S11300D07200740077007A007D007F008200850042
S11300E088008B008E009100940097009A009D0078
S11300F0A000A400A700AA00AD00B100B400B8009D
S1130100BB00BE00C200C500C900CC00D000D400B2
S1130110D700DB00DF00E300E600EA00EE00F200B7
S1130120F600FA00FE00020106010A010E011201A6
S113013016011A011F01230127012C01300134018A
S113014039013D01420146014B014F01540159015E
S11301505D01620167016B01700175017A017F0124
S1130160840189018E01930198019D01A201A701D7
S1130170AC01B201B701BC01C101C701CC01D1017D
S1130180D701DC01E201E701ED01F201F801FE0112
S1130190030209020F0215021A02200226022C028F
S11301A0320238023E0244024A02500256025C0203
S11301B0630269026F0275027C02820288028F0266
S11301C095029C02A202A902AF02B602BC02C302BB
S11301D0CA02D002D702DE02E502EC02F302F902FF
S11301E0000307030E0315031C0324032B0332032C
S11301F03903400347034F0356035D0365036C0350
S113020074037B0383038A0392039903A103A90361
S1130210B003B803C003C803CF03D703DF03E70366
S1130220EF03F703FF03000000000000005F00007D
S11302300007000700147F147F14242A7F2A122346
S11302401308646236495522500005030000001C5F
S11302502241000041221C00082A1C2A0808083EEA
S11302600808005030000008080808080060600012
S11302700020100804023E5149453E00427F4000E0
S113028042615149462141454B311814127F1027D0
S1130290454545393C4A4949300171090503364908
S11302A0494936064949291E0036360000005636AB
S11302B000000008142241141414141441221408D8
S11302C0000201510906324979413E7E1111117E25
S11302D07F494949363E414141227F4141221C7FA9
S11302E0494949417F090901013E414151327F0891
S11302F008087F00417F41002040413F017F0814EE
S113030022417F404040407F0204027F7F04081066
S11303107F3E4141413E7F090909063E4151215E2C
S11303207F09192946464949493101017F01013FA5
S11303304040403F1F2040201F7F2018207F63142F
S11303400814630304780403615149454300007FA2
S11303504141020408102041417F000004020102CF
S113036004404040404000010204002054545478AA
S11303707F484444383844444420384444487F380F
S113038054545418087E090102081454543C7F083C
S113039004047800447D40002040443D00007F1068
S11303A0284400417F40007C041804787C0804043D
S11303B07838444444387C14141408081414187C01
S11303C07C080404084854545420043F4440203C0E
S11303D04040207C1C2040201C3C4030403C4428B1
S11303E01028440C5050503C4464544C440008368B
S11303F0410000007F00000041360800203C7E3CA4
S1130400205438FE38547E1111117E7F49494933F6
S11304107F494949367F01010103E0514F41FF7F84
S11304204949494177087F087741494949367F104E
S113043008047F7C2112097C7F0814224120413F5B
S1130440017F7F020C027F7F0808087F3E41414103
S11304503E7F0101017F7F090909063E4141412296
S113046001017F010147281008071C227F221C6319
S1130470140814637F404040FF070808087F7F404A
S11304807F407F7F407F40FF017F4848307F483076
S1130490007F007F484830224149493E7F083E4161
S11304A03E462919097F20545454783C4A4A49311C
S11304B07C545428007C0404040CE0544C44FC3860
S11304C0545454186C107C106C44445454287C20AC
S11304D010087C7C4122117C7C1028440020443C80
S11304E0047C7C0810087C7C1010107C3844444444
S11304F0387C0404047C7C141414083844444420D8
S113050004047C04040C5050503C3048FC483044F3
S1130510281028447C404040FC0C1010107C7C4087
S11305207C407C7C407C40FC047C5050207C5050BF
S1130530207C7C5050200028445454387C1038448B
S113054038085434147C11241FBECFE5D4E0DEBF38
S1130550CDBF11E0A0E6B0E0E0E4F9E102C005900F
S11305600D92A63FB107D9F722E0A6EFB1E001C092
S11305701D92AB31B207E1F7A3D2E0C941CDE6EF5A
S1130580F1E01082118222E0AF016EE080ED4DC1F6
S11305900F931F93CF93DF93EC018B0122E046EF7F
S11305A051E061E080EDFCD0E6EFF1E08081982F2E
S11305B092959F708F702AE0929F800D1124D8012C
S11305C08C938181982F92959F708F70BAE09B9F36
S11305D0800D11248883DF91CF911F910F9108958D
S11305E0262F68E146D6392F822F6CE342D6892F15
S11305F0E6EFF1E02AE0622F3CD640E1849F900DC3
S113060011249083832F35D620E1829F900D1124ED
S1130610918322E0AF0161E080ED07C1CF93DF93C6
S1130620EC0121E046EF51E063E080EDB9D0809128
S1130630F60187708883DF91CF9108959FEF980F1B
S11306409C3040F48093F60121E046EF51E063E0F2
S113065080EDEBC00895AC98AD98A49885E08A9598
S1130660F1F70000A59885E08A95F1F70000A49AB7
S113067085E08A95F1F70000A59A0895A498109250
S1130680160280E090911602A5989730D0F495E078
S11306909A95F1F700009C998F5F95E09A95F1F790
S11306A00000A59A95E09A95F1F7000095E09A95D7
S11306B0F1F70000880F909116029F5F9093160245
S11306C0E1CF95E09A95F1F700009C998F5F95E052
S11306D09A95F1F70000A59A95E09A95F1F7000034
S11306E095E09A95F1F700000895A49A85E08A951B
S11306F0F1F70000A59885E08A95F1F70000A49829
S1130700089598E090931602282F30E090911602F5
S1130710992321F19150A90102C0559547959A95C5
S1130720E2F740FF02C0A49801C0A49A55E05A958C
S1130730F1F70000A59885E08A95F1F7000045E0FF
S11307404A95F1F70000A59A55E05A95F1F7000093
S113075080911602815080931602D8CFA598A49850
S113076085E08A95F1F70000109216029C9B09C05F
S113077080911602883C98F442E04A95F1F700C053
S1130780F5CF55E05A95F1F70000A59A85E08A95D2
S1130790F1F70000A49A45E04A95F1F700000895A6
S11307A0EF92FF920F931F93CF93DF93C82F162FCF
S11307B07A01D22F50DF8C2FA4DF812FA2DF4BDFF1
S11307C081E08C0F9EDF109215022D2F30E0E9019D
S11307D021978091150290E08C179D07A4F487015E
S11307E0080F191F4BDFF8018083A49AA598F5E040
S11307F0FA95F1F70000A59AA498809115028F5FED
S113080080931502E6CFCE0DDF1D38DF8883A498D0
S1130810A59885E08A95F1F70000A59ADF91CF911C
S11308201F910F91FF90EF9060CFFF920F931F9352
S1130830CF93DF93F82ED62F8A01C22F0CDF8F2D92
S113084060DF8D2F5EDF10921502809115028C17E8
S113085058F4F801E80FF11D808153DF80911502EF
S11308608F5F80931502F1CFDF91CF911F910F918C
S1130870FF903BCF46E250E020E030E0FA01A59142
S1130880B4916AB57BB5A617B70740F44E5F5F4FC6
S11308902F3F310519F02F5F3F4FF0CF90E0A901B2
S11308A0440F551F60E070E082179307C4F4215091
S11308B03109625071092817390784F0FB01E40FEC
S11308C0F51FEA5DFF4FA591B491BBBDAABDEFE949
S11308D0FFE03197F1F700C00000E9CF08952F5FE2
S11308E03F4F6E5F7F4F8217930784F0FB01E40F45
S11308F0F51FEA5DFF4FA591B491BBBDAABDEFE121
S1130900FEE43197F1F700C00000E9CF0895CF92DB
S1130910DF92EF92FF920F931F93CF93DF93EB013C
S1130920D42EC22E9C0141E060E180E0A9D38881ED
S11309301F928F9384E690E09F938F938EEF91E0C4
S11309409F938F930ED52EEF31E042E068E18AE564
S113095097D30F900F900F900F900F900F90B29B22
S1130960FECFB39BFCCF80E004E610E09EEFE92EBF
S113097091E0F92EB29B12C0B39B10C091E0980F86
S1130980863958F42FE738E381E021503040804025
S1130990E1F700C00000892FEDCF892F863998F543
S11309A0EFE4F3EC3197F1F700C00000B29B2DC0E7
S11309B0B399E0CF88818F5FC81610F0888301C097
S11309C0D88288811F928F931F930F93FF92EF9287
S11309D0C8D42EEF31E042E068E18AE551D30F90AC
S11309E00F900F900F900F900F9080E0B399C2CFAB
S11309F08F5F8F3109F4BECFEFE0F7E23197F1F763
S1130A0000C00000F3CF8FEF01C080E0DF91CF91F1
S1130A101F910F91FF90EF90DF90CF9008951F9357
S1130A20CF93DF93EC01162F3DD7811731F0612F5F
S1130A30CE01DF91CF911F913DC7DF91CF911F91DF
S1130A400895EF92FF920F931F93CF93DF938C013E
S1130A507B019C0140E050E060E271EA87E090E0B5
S1130A6049D4E9010E9DB0010F9D700D1E9D700DBE
S1130A70112480E090E028EE33E040E050E018D408
S1130A802150310941095109A0F0949ACE010097EF
S1130A9031F062E06A95F1F700C00197F8CF9498BD
S1130AA0CE01009769F362E06A95F1F700C00197FF
S1130AB0F8CFDF91CF911F910F91FF90EF900895A0
S1130AC08091130280FF16C08C9A949869E170E0BB
S1130AD088EB91E0B6DF69E170E08AE292E0B1DF91
S1130AE069E170E083E992E0ACDF69E170E080E7FE
S1130AF093E0A7DFF6D180E034D228E630E042E08C
S1130B0060E080E0BDD22FE630E041E068E180E0C3
S1130B10B7D224E830E041E060E280E0B1D229E9D4
S1130B2030E041E060E380E0ABD229DDBA9888B3DD
S1130B308C6088BB85E083BF89B7816089BFB99A1F
S1130B4083E88FBD89E08EBD1BBC1ABC78942FEF5F
S1130B5033ED80E3215030408040E1F700C00000D5
S1130B6080E0FFD18FE78093FE0180E28093FF0154
S1130B708EE7809300020EEA10E0CEEFD1E092EB14
S1130B80E92E90E0F92E2CE0B22E30E2D32E4FE77E
S1130B90A42E5EE7952E67E172E08AE192E0F8DC2C
S1130BA080911A021F928F931F930F93DF93CF9319
S1130BB0D8D32EEF31E046E060E080E061D280914E
S1130BC017021F928F93FF92EF92DF93CF93C9D3B3
S1130BD02EEF31E044E060E180E452D289E192E01A
S1130BE01DDD809119022DB73EB7245F3F4F0FB62C
S1130BF0F8943EBF0FBE2DBF883068F490E0019793
S1130C00B89E9001B99E300D11242F553E4F42E0FD
S1130C1062E383E035D28091600080FF03C0A0923C
S1130C20FE0102C0D092FE0181FF03C09092000237
S1130C3002C0D0920002D092FF01109201022EEF66
S1130C4031E041E060E08EE61BD220911A029091DF
S1130C506200291306C03091170280916100381791
S1130C6029F0809113028260809313028091130211
S1130C7081FF27C0291325C090911702809161003C
S1130C8098131FC08BE0C82E8091130281FF12C0FD
S1130C90CA94CC2079F068EE73E080EB91E0D1DE69
S1130CA03FEF89E698E1315080409040E1F700C081
S1130CB00000EACF8FE19EE40197F1F700C0000045
S1130CC06ACF9FEF23E234EF915020403040E1F7A8
S1130CD000C0000044D15FCF1F920F920FB60F9255
S1130CE011242F933F934F935F936F937F938F932D
S1130CF09F93AF93BF93EF93FF9313BEB39906C033
S1130D00809113028D7F8093130227D1B29B13C06D
S1130D1085E083BFFF91EF91BF91AF919F918F9138
S1130D207F916F915F914F913F912F910F900FBEE3
S1130D300F901F901895B399ABC08091130280FF58
S1130D400AC069E170E083E992E07BDE69E170E06A
S1130D5080E793E076DE01D180E003D128EB30E038
S1130D6041E060E085E28CD122EC30E041E060E3D8
S1130D7080E086D127E140E062E670E087ED90E014
S1130D80C6DD811158C02BE340E061E670E087EED8
S1130D9090E0BDDD81114FC028EF30E041E068E113
S1130DA06FD128E031E041E060E280E069D123E0E6
S1130DB040E060E670E087E191E0A9DD81113BC08D
S1130DC028E231E041E068E15BD128E231E041E032
S1130DD060E280E055D12FEF4AE068E172E088E3F9
S1130DE091E095DD811127C067E172E08AE192E02C
S1130DF0CFDB27E140E06AE172E08DE491E087DD3A
S1130E00811119C02BE340E067E172E082E691E0D2
S1130E107EDD811110C027E041E069E172E087E7DF
S1130E2091E075DD811107C02FEF4EE163E670E0BC
S1130E308CE891E06CDD8091130280FF05C069E1CC
S1130E4070E088EB91E0FDDD80E08BD060911702CB
S1130E5080911A02C5DB80911902F0DB6091620077
S1130E6080E190E0DCDD6091610081E190E0D7DD1C
S1130E706091600082E190E0D2DD6091180283E12C
S1130E8090E0CDDD6091630080E290E0C8DD1EC09B
S1130E908AB59BB5892B11F080E017C0809163005F
S1130EA0E9DC80E0B29B03C0843181F40DC08F5F24
S1130EB0853151F02FE738E391E0215030409040E4
S1130EC0E1F700C00000EECF8FEFD4DCB29BFECF81
S1130ED01FCF8093140221E044E152E060E088E7F0
S1130EE0A4CC8FE19EE40197F1F700C000008EEAE4
S1130EF0F0DF85EDEEDF80E8ECDF88EAEADF8FE300
S1130F00E8DF83EDE6DF80E0E4DF80E4E2DF8DE824
S1130F10E0DF84E1DEDF80E2DCDF80E0DADF81EA4B
S1130F20D8DF80ECD6DF8AEDD4DF82E1D2DF81E83E
S1130F30D0DF8FE0CEDF89EDCCDF81EFCADF8BED30
S1130F40C8DF80E4C6DF84EAC4DF86EAC2DF8EE25B
S1130F50C0DF8FEABEDF80E008958FEABACF8EEA61
S1130F60B8CF1F93CF93DF93CDB7DEB7C058D10965
S1130F700FB6F894DEBF0FBECDBF182F81E2A9DFF4
S1130F8080E0A7DF8FE7A5DF82E2A3DF80E0A1DFB7
S1130F9087E09FDF61E0111101C060E0619570E0BE
S1130FA040E850E0CE010196D5D118E020E8AE012A
S1130FB04F5F5F4F60E488E738DC1150B9F7C058E1
S1130FC0DF4F0FB6F894DEBF0FBECDBFDF91CF91D8
S1130FD01F910895EF92FF920F931F93CF93DF9386
S1130FE0D62FC42F8901F82E87E08F1510F477E0EF
S1130FF0F72ED7FDDFE7C7FDCFE74C2F50E08D2F4D
S113100090E09A01281B390B37FF02C02F5F3F4F36
S11310103595279560E080959095840F951F462F10
S113102050E04217530774F4D801A40FB51F7C9104
S1131030FC01E41BF50BE00FF11F40814C9370831E
S11310406F5FEDCF81E245DF8FE7E82E8E2D8C1B9D
S113105040DF8E2D8D1B3DDF82E23BDF8F2D39DF9C
S113106081E08F0D36DF2C2F2D1B2F5FA80160E44C
S113107088E7DF91CF911F910F91FF90EF90D5CB2F
S11310802F923F924F925F926F927F928F929F9294
S1131090AF92BF92CF92DF92EF92FF920F931F9382
S11310A0CF93DF93CDB7DEB7C858D1090FB6F89404
S11310B0DEBF0FBECDBF382E042FCD57DF4F39838F
S11310C02883C358D040162F1695169516959E0161
S11310D02F5F3F4F690180E8F90111928A95E9F782
S11310E0F12FF40FCF57DF4FF883C158D040842F2E
S11310F0880F880F840FCE57DF4F8883C258D040A3
S1131100E12CF12CA42EB12CCF57DF4F3881C158DC
S1131110D040311709F493C080E8F60111928A9502
S1131120E9F7512C712CCE57DF4F2880C258D0409C
S11311302394CD57DF4FE881F981C358D040E50DA2
S1131140F11D2081222309F46FC0203C08F02054B3
S113115088E090E0B50199D0892B11F4662E03C084
S113116066246394660EF5E02F9FC0011124472C7A
S1131170812C912C9C01205A3109C957DF4F3983A6
S11311802883C758D040C957DF4FE881F981C75831
S1131190D040E80DF91DEA5DFD4FE49140E030E0F8
S11311A020E08E2F90E0CB57DF4F99838883C5587A
S11311B0D040361531F1C701B50167D0942F981B83
S11311C0892F97FD80E0EFEFF0E001C0EE0F8A95E4
S11311D0EAF7C701B50159D0630FCB57DF4F8881B8
S11311E09981C558D04002C0959587956A95E2F7D4
S11311F080FF02C02E2B02C0E0952E233F5F400FDC
S1131200D8CF622F70E0A501C601840D911DA2D034
S1131210400EEFEF8E1A9E0AF5E08F16910409F046
S1131220B2CF720C539485CF472D430D9601632D95
S1131230812FD0DE1F5F28E0E20EF11C65CFC85776
S1131240DF4F0FB6F894DEBF0FBECDBFDF91CF9155
S11312501F910F91FF90EF90DF90CF90BF90AF90D0
S11312609F908F907F906F905F904F903F902F90C2
S11312700895991B79E004C0991F961708F0961BEE
S1131280881F7A95C9F78095089597FB072E16F461
S1131290009406D077FD08D049D007FC05D03EF471
S11312A0909581959F4F0895709561957F4F08950E
S11312B0A1E21A2EAA1BBB1BFD010DC0AA1FBB1F56
S11312C0EE1FFF1FA217B307E407F50720F0A21BC8
S11312D0B30BE40BF50B661F771F881F991F1A9435
S11312E069F760957095809590959B01AC01BD015F
S11312F0CF010895052E97FB16F400940FD057FDE7
S113130005D0D6DF07FC02D046F408C050954095BE
S1131310309521953F4F4F4F5F4F0895909580959D
S1131320709561957F4F8F4F9F4F0895AA1BBB1BEC
S113133051E107C0AA1FBB1FA617B70710F0A61BD1
S1131340B70B881F991F5A95A9F780959095BC01F2
S1131350CD010895DC0101C06D9341505040E0F788
S11313600895AEE0B0E0E6EBF9E0BFC20D891E8956
S113137086E08C831A8309838FEF9FE79E838D8396
S1131380AE01475E5F4F6F89788DCE01019608D01C
S1131390EF81F885E00FF11F10822E96E4E0C1C2C0
S11313A0ABE0B0E0E5EDF9E092C26C017B018A01AB
S11313B0FC0117821682838181FFBFC1CE01019691
S11313C03C01F6019381F70193FD859193FF81918F
S11313D07F01882309F4ADC1853239F493FD8591E9
S11313E093FF81917F01853221F4B60190E0C0D151
S11313F0E8CF912C212C312CFFE1F315D8F08B325E
S113140079F038F4803279F08332A1F4232D20610D
S11314101DC08D3261F0803369F4232D216016C024
S1131420832D8260382EE32DE4603E2E2AC0F32DF6
S1131430F8601DC037FC2DC020ED280F2A3040F085
S11314408E32B9F436FC75C1232D2064322E19C0B6
S113145036FE06C08AE0989E200D1124922E11C0FB
S1131460EAE02E9E200D1124222EF32DF0623F2E51
S113147008C08C3621F4832D8068382E02C088364B
S113148041F4F70193FD859193FF81917F018111CF
S1131490B3CF982F9F7D9554933028F40C5F1F4F42
S11314A09FE399830DC0833631F0833771F0833520
S11314B009F055C020C0F801808189830E5F1F4F59
S11314C088248394912C530112C02801F2E04F0E1A
S11314D0511CF801A080B18036FE03C0692D70E074
S11314E002C06FEF7FEFC50138D14C018201F32DAB
S11314F0FF773F2E15C0280122E0420E511CF8014F
S1131500A080B18036FE03C0692D70E002C06FEF89
S11315107FEFC50117D14C01F32DF0683F2E8201F6
S113152033FC19C0822D90E088169906A0F4B60108
S113153080E290E01DD12A94F5CFF50137FC859126
S113154037FE81915F01B60190E012D121102A94F7
S113155021E0821A91088114910479F7E1C084365C
S113156011F0893639F5F80137FE07C060817181C1
S1131570828193810C5F1F4F08C060817181072EA7
S1131580000C880B990B0E5F1F4FF32DFF763F2E37
S113159097FF09C090958095709561957F4F8F4F07
S11315A09F4FF0683F2E2AE030E0A3011DD1882E22
S11315B0861844C0853731F4232D2F7EB22E2AE0BD
S11315C030E025C0932D997FB92E8F36C1F018F4E1
S11315D0883579F0AEC0803719F0883721F0A9C07A
S11315E0E92FE061BE2EB4FE0DC0FB2DF460BF2ECA
S11315F009C034FE0AC0292F2660B22E06C028E096
S113160030E005C020E130E002C020E132E0F80122
S1131610B7FE07C060817181828193810C5F1F4F87
S113162006C06081718180E090E00E5F1F4FA301CE
S1131630DBD0882E8618FB2DFF773F2E36FE0DC09B
S1131640232D2E7FA22E891458F434FE0BC032FCB5
S113165009C0832D8E7EA82E05C0B82CA32C03C0F0
S1131660B82C01C0B92CA4FE0FC0FE01E80DF11D79
S11316708081803321F49A2D997EA92E09C0A2FE7F
S113168006C0B394B39404C08A2D867809F0B39449
S1131690A3FC10C0A0FE06C0B21480F4280C922C47
S11316A09B180DC0B21458F4B60180E290E060D0EB
S11316B0B394F8CFB21418F42B1802C0982C212C30
S11316C0A4FE0FC0B60180E390E052D0A2FE16C083
S11316D0A1FC03C088E790E002C088E590E0B60171
S11316E00CC08A2D867851F0A1FE02C08BE201C0A5
S11316F080E2A7FC8DE2B60190E03AD0891430F480
S1131700B60180E390E034D09A94F8CF8A94F30140
S1131710E80DF11D8081B60190E02AD08110F6CF4A
S1131720222009F44ECEB60180E290E021D02A9422
S1131730F7CFF6018681978102C08FEF9FEF2B963A
S1131740E2E1E1C0FC010590615070400110D8F75E
S1131750809590958E0F9F1F0895FC0161507040F5
S113176001900110D8F7809590958E0F9F1F0895D2
S11317700F931F93CF93DF93FB01238121FD03C0BC
S11317808FEF9FEF2CC022FF16C046815781248122
S113179035814217530744F4A081B1819D012F5F25
S11317A03F4F318320838C93268137812F5F3F4FB6
S11317B03783268314C08B01EC01FB010084F1857F
S11317C0E02D0995892BE1F6D80116968D919C910F
S11317D01797019617969C938E931697CE01DF91D7
S11317E0CF911F910F910895FA01AA27283051F142
S11317F0203181F1E8946F936E7F6E5F7F4F8F4F3E
S11318009F4FAF4FB1E03ED0B4E03CD0670F781F9C
S1131810891F9A1FA11D680F791F8A1F911DA11D81
S11318206A0F711D811D911DA11D20D009F46894BA
S11318303F912AE0269F11243019305D3193DEF662
S1131840CF010895462F4770405D4193B3E00FD018
S1131850C9F7F6CF462F4F70405D4A3318F0495D03
S113186031FD4052419302D0A9F7EACFB4E0A695E6
S11318709795879577956795BA95C9F70097610508
S1131880710508959B01AC010A2E0694579547955E
S113189037952795BA95C9F7620F731F841F951F53
S11318A0A01D0895E199FECF9FBB8EBBE09A9927B6
S11318B08DB30895262FE199FECF9FBB8EBB2DBB20
S11318C00FB6F894E29AE19A0FBE019608952F920A
S11318D03F924F925F926F927F928F929F92AF92BC
S11318E0BF92CF92DF92EF92FF920F931F93CF9309
S11318F0DF93CDB7DEB7CA1BDB0B0FB6F894DEBFA0
S11319000FBECDBF09942A88398848885F846E84C5
S11319107D848C849B84AA84B984C884DF80EE800F
S1131920FD800C811B81AA81B981CE0FD11D0FB618
S1131930F894DEBF0FBECDBFED010895F894FFCF3C
S1131940020A162F25337500C0E2F0EEF0E000C164
S1131950F3E4E8EBFCEDE8EA2C20F120EAEEF2EE09
S1131960F0FBEC002020EFF0EEF1FBEFE0F2FCF1F5
S1131970FF20EBE5E3EAEE2100C4F3E1E8F8EAE84E
S1131980ED202020202020202076302E310025320A
S113199075003A2530327500CDE0F1F2F0EEE9EA57
S11319A0E8003E202020202020202020202020206D
S11319B020202020202B00C1F3E4E8EBFCEDE8EA32
S11319C02028F7E0F12900C1F3E4E8EBFCEDE8EAB4
S11319D02028ECE8ED2E2900302DE2FBEAEB203143
S11319E02DF0E0F1F1E22E00322DE7E2F3EA2033AC
S11319F02DE7E22BF1E200D0E5E6E8EC20E1F3E4A8
S1131A00E8EBFCEDE8EAE000202020202020202064
S1131A102020202020202000C4EBE8F22E20F0E03B
S1131A20F1F1E2E5F2E02028ECE8ED2900C2F0E56E
S1131A30ECFF2028F7E0F12920202020202020207E
S1131A402000C2F0E5ECFF2028ECE8ED2E29202050
S1131A5020202020202000C4E5EDFC20EDE5E4E575
S1131A60EBE820202020202020202000DFF0EAEED8
S1131A70F1F2FC20EDEEF7EDE8EAE0202020202052
S1131A8000CFEEEDE5E4E5EBFCEDE8EA002020C252
S1131A90F2EEF0EDE8EA202000202020D1F0E5E489
S1131AA0E0202020002020D7E5F2E2E5F0E320202A
S1131AB0002020CFFFF2EDE8F6E02020002020D126
S1131AC0F3E1E1EEF2E0202000C2EEF1EAF0E5F10C
S1091AD0E5EDFCE5000059
S9030000FC
