:10000000A2C1BCC1BBC1BAC1B9C1B8C1B7C1B6C137
:10001000B5C1BEC8B3C1B2C1B1C1B0C1AFC1AEC13B
:10002000ADC1ACC1ABC1000000000000005F00002A
:100030000007000700147F147F14242A7F2A12234C
:100040001308646236495522500005030000001C65
:100050002241000041221C00082A1C2A0808083EF0
:100060000808005030000008080808080060600018
:100070000020100804023E5149453E00427F4000E6
:1000800042615149462141454B311814127F1027D6
:10009000454545393C4A494930017109050336490E
:1000A000494936064949291E0036360000005636B1
:1000B00000000008142241141414141441221408DE
:1000C000000201510906324979413E7E1111117E2B
:1000D0007F494949363E414141227F4141221C7FAF
:1000E000494949417F090901013E414151327F0897
:1000F00008087F00417F41002040413F017F0814F4
:1001000022417F404040407F0204027F7F0408106C
:100110007F3E4141413E7F090909063E4151215E32
:100120007F09192946464949493101017F01013FAB
:100130004040403F1F2040201F7F2018207F631435
:100140000814630304780403615149454300007FA8
:100150004141020408102041417F000004020102D5
:1001600004404040404000010204002054545478B0
:100170007F484444383844444420384444487F3815
:1001800054545418087E090102081454543C7F0842
:1001900004047800447D40002040443D00007F106E
:1001A000284400417F40007C041804787C08040443
:1001B0007838444444387C14141408081414187C07
:1001C0007C080404084854545420043F4440203C14
:1001D0004040207C1C2040201C3C4030403C4428B7
:1001E0001028440C5050503C4464544C4400083691
:1001F000410000007F00000041360800203C7E3CAA
:10020000205438FE38547E1111117E7F49494933FC
:100210007F494949367F01010103E0514F41FF7F8A
:100220004949494177087F087741494949367F1054
:1002300008047F7C2112097C7F0814224120413F61
:10024000017F7F020C027F7F0808087F3E41414109
:100250003E7F0101017F7F090909063E414141229C
:1002600001017F010147281008071C227F221C631F
:10027000140814637F404040FF070808087F7F4050
:100280007F407F7F407F40FF017F4848307F48307C
:10029000007F007F484830224149493E7F083E4167
:1002A0003E462919097F20545454783C4A4A493122
:1002B0007C545428007C0404040CE0544C44FC3866
:1002C000545454186C107C106C44445454287C20B2
:1002D00010087C7C4122117C7C1028440020443C86
:1002E000047C7C0810087C7C1010107C384444444A
:1002F000387C0404047C7C141414083844444420DE
:1003000004047C04040C5050503C3048FC483044F9
:10031000281028447C404040FC0C1010107C7C408D
:100320007C407C7C407C40FC047C5050207C5050C5
:10033000207C7C5050200028445454387C10384491
:1003400038085434147C11241FBECFE5D4E0DEBF3E
:10035000CDBF12E0A0E6B0E0E8EDFBE102C0059001
:100360000D92A230B107D9F722E0A2E0B2E001C0BD
:100370001D92A632B207E1F7C4D52CCC41CEE2E003
:10038000F2E01082118222E0AF016EE080EDB9D27E
:1003900008950F931F93CF93DF93EC018B0122E01D
:1003A00042E052E061E080ED81D0E2E0F2E0808165
:1003B000982F92959F70990F292F220F220F920F3D
:1003C0008F70890FD8018C938181982F92959F709F
:1003D000990F292F220F220F920F8F70890F888378
:1003E000DF91CF911F910F9108959BEA899F912DE5
:1003F000112492959F7028E1929F80191124982FC3
:1004000089E8689F812D11248295869587704CE339
:10041000849F60191124862FE2E0F2E02DEC629FA8
:10042000312D1124369536953695532F550F452F7E
:10043000440F440F450F841B40E1349F800D11246D
:100440008083929F812D1124869586958695382FDD
:10045000330F232F220F220F230F921B20E1829FA5
:10046000900D1124918322E0AF0161E080ED49D22B
:100470000895CF93DF93EC0121E042E052E063E086
:1004800080ED14D08091020287708883DF91CF9134
:1004900008959FEF980F9C3040F48093020221E072
:1004A00042E052E063E080ED2CD20895CF93DF93D9
:1004B00095B39F7E95BB95B39F7D95BB94B39F7E6F
:1004C00094BB95E09A95F1F7000094B39F7D94BB9F
:1004D000A5E0AA95F1F7000094B3906194BBB5E054
:1004E000BA95F1F7000094B3906294BB98E09093B2
:1004F00022022EC0F0E03197A82FB0E0ED0102C03B
:10050000D595C795EA95E2F7C0FF04C094B39F7EE6
:1005100094BB03C094B3906194BBD5E0DA95F1F736
:10052000000094B39F7D94BB95E09A95F1F700008D
:10053000A5E0AA95F1F7000094B3906294BBB5E0F2
:10054000BA95F1F700009091220291509093220207
:10055000E0912202E111CECF94B39F7D94BB94B37E
:100560009F7E94BBC5E0CA95F1F70000109222026D
:1005700008C090912202983CC0F4D2E0DA95F1F7DD
:1005800000C09C99F6CF95E09A95F1F7000094B3DE
:10059000906294BBA5E0AA95F1F7000094B3906136
:1005A00094BBB5E0BA95F1F7000098E09093220271
:1005B0002EC0F0E03197A62FB0E0ED0102C0D59536
:1005C000C795EA95E2F7C0FF04C094B39F7E94BB41
:1005D00003C094B3906194BBD5E0DA95F1F70000C5
:1005E00094B39F7D94BB95E09A95F1F70000A5E048
:1005F000AA95F1F7000094B3906294BBB5E0BA9568
:10060000F1F7000090912202915090932202E09124
:100610002202E111CECF94B39F7D94BB94B39F7E11
:1006200094BBC5E0CA95F1F700001092220208C001
:1006300090912202983CC0F4D2E0DA95F1F700C024
:100640009C99F6CF95E09A95F1F7000094B39062EB
:1006500094BBA5E0AA95F1F7000094B3906194BB18
:10066000B5E0BA95F1F7000095B39F7E95BB95B3C1
:100670009F7D95BB94B39F7E94BBC5E0CA95F1F76F
:10068000000094B39F7D94BBD5E0DA95F1F70000AC
:1006900094B3906194BB95E09A95F1F7000094B300
:1006A000906294BB8F5F98E0909322022FC070E01D
:1006B00061507109E82FF0E0DF0102C0B595A79500
:1006C0006A95E2F7A0FF04C094B39F7E94BB03C079
:1006D00094B3906194BBB5E0BA95F1F7000094B380
:1006E0009F7D94BBC5E0CA95F1F70000D5E0DA958F
:1006F000F1F7000094B3906294BB95E09A95F1F7FE
:100700000000909122029150909322026091220267
:100710006111CDCF84B38F7D84BB84B38F7E84BBC6
:10072000A5E0AA95F1F700001092220208C080917E
:100730002202883CC0F4B2E0BA95F1F700C09C995F
:10074000F6CFC5E0CA95F1F7000084B3806284BBA0
:10075000D5E0DA95F1F7000084B3806184BB85E0D1
:100760008A95F1F70000109221025AC0FA01E30FB6
:10077000F11D84B38F7E84BB1092220290E01EC0D4
:1007800084B38F7D84BBA5E0AA95F1F700009C9906
:100790009F5FB5E0BA95F1F7000084B3806284BB37
:1007A000C5E0CA95F1F70000D5E0DA95F1F7000051
:1007B000990F809122028F5F809322028091220202
:1007C0008730F0F284B38F7D84BB85E08A95F1F7A2
:1007D00000009C999F5FA5E0AA95F1F7000084B303
:1007E000806284BBB5E0BA95F1F70000C5E0CA9518
:1007F000F1F70000908384B3806184BB84B38F7D64
:1008000084BBD5E0DA95F1F7000084B3806284BB45
:1008100084B38F7E84BB809121028F5F80932102FD
:1008200030912102632F70E0822F90E001976817CA
:1008300079070CF49BCFFA01E80FF91F84B38F7E80
:1008400084BB1092220290E01EC084B38F7D84BBD3
:1008500085E08A95F1F700009C999F5FA5E0AA9535
:10086000F1F7000084B3806284BBB5E0BA95F1F77C
:100870000000C5E0CA95F1F70000990F80912202AF
:100880008F5F80932202809122028730F0F284B33E
:100890008F7D84BBD5E0DA95F1F700009C999F5FCE
:1008A00085E08A95F1F7000084B3806284BBA5E0FF
:1008B000AA95F1F70000B5E0BA95F1F70000908332
:1008C00084B38F7E84BB84B38F7D84BBC5E0CA951F
:1008D000F1F7000084B3806284BB84B3806184BB81
:1008E000D5E0DA95F1F7000084B38F7D84BB85E015
:1008F0008A95F1F7000084B38F7E84BBDF91CF919E
:100900000895CF93DF9395B39F7E95BB95B39F7D5D
:1009100095BB94B39F7E94BB95E09A95F1F7000048
:1009200094B39F7D94BBA5E0AA95F1F7000094B322
:10093000906194BBB5E0BA95F1F7000094B3906272
:1009400094BB98E0909322022EC0F0E03197A82F3C
:10095000B0E0ED0102C0D595C795EA95E2F7C0FF7A
:1009600004C094B39F7E94BB03C094B3906194BBC6
:10097000D5E0DA95F1F7000094B39F7D94BBE5E0F4
:10098000EA95F1F70000F5E0FA95F1F7000094B36D
:10099000906294BB95E09A95F1F700009091220245
:1009A000915090932202E0912202E111CECF84B3C4
:1009B0008F7D84BB84B38F7E84BBA5E0AA95F1F7BD
:1009C00000001092220208C080912202883CC0F4EC
:1009D000B2E0BA95F1F700C09C99F6CFC5E0CA9590
:1009E000F1F7000084B3806284BBD5E0DA95F1F7BB
:1009F000000084B3806184BBE5E0EA95F1F7000074
:100A000088E0809322022EC090E00197E62FF0E06C
:100A1000DF0102C0B595A7958A95E2F7A0FF04C053
:100A200084B38F7E84BB03C084B3806184BBB5E094
:100A3000BA95F1F7000084B38F7D84BBC5E0CA95F9
:100A4000F1F70000D5E0DA95F1F7000084B3806299
:100A500084BBE5E0EA95F1F7000080912202815025
:100A600080932202809122028111CECF84B38F7DA8
:100A700084BB84B38F7E84BBF5E0FA95F1F7000068
:100A80001092220208C080912202883CC0F482E0C9
:100A90008A95F1F700C09C99F6CF95E09A95F1F709
:100AA000000084B3806284BBA5E0AA95F1F7000042
:100AB00084B3806184BBB5E0BA95F1F70000109271
:100AC000210268C0FA01E80FF11D308188E08093AF
:100AD00022022EC090E00197632F70E0EB0102C06C
:100AE000D595C7958A95E2F7C0FF04C084B38F7E81
:100AF00084BB03C084B3806184BBD5E0DA95F1F791
:100B0000000084B38F7D84BBE5E0EA95F1F7000037
:100B1000F5E0FA95F1F7000084B3806284BB85E0CC
:100B20008A95F1F700008091220281508093220281
:100B3000809122028111CECF84B38F7D84BB84B398
:100B40008F7E84BB95E09A95F1F700001092220207
:100B500008C080912202883CC0F4A2E0AA95F1F777
:100B600000C09C99F6CFB5E0BA95F1F7000084B3C8
:100B7000806284BBC5E0CA95F1F7000084B3806150
:100B800084BBD5E0DA95F1F70000809121028F5FF8
:100B90008093210280912102821708F493CF84B3BD
:100BA000806184BBE5E0EA95F1F7000084B38F7DB6
:100BB00084BBF5E0FA95F1F7000084B38F7E84BB27
:100BC000DF91CF91089520E030E040E050E010C088
:100BD000229FA001239F500D500D1124042E452F5C
:100BE000000C441F550B000C441F551F2F5F3F4F37
:100BF000495F5F4F6AB57BB54617570718F42F3F1B
:100C0000310534F3682F70E062177307CCF036C0FB
:100C1000229FA001239F500D500D1124042E452F1B
:100C2000000C441F550B000C441F551F495F5F4FBC
:100C30005BBD4ABDEFE9FFE03197F1F700C000006E
:100C400021503109261737071CF71DC0229FA0012C
:100C5000239F500D500D1124042E452F000C441FCE
:100C6000550B000C441F551F495F5F4F5BBD4ABDCC
:100C7000EFE1FEE43197F1F700C000002F5F3F4F36
:100C8000621773071CF7811102C01BBC1ABC0895C0
:100C900022B3206122BB07C08FEC97E00197F1F7E8
:100CA00000C00000C9019C0121503109892BA1F726
:100CB00082B38F7E82BB08950F931F93CF93DF93F0
:100CC000EB01042F122F9C0141E060E180E0A0D3F2
:100CD00088811F928F9385E690E09F938F938AE09F
:100CE00092E09F938F9389D42AE032E042E068E15A
:100CF0008AE58ED30F900F900F900F900F900F906A
:100D0000B29BFECFB39BFCCF80E00AC02FE738E355
:100D100081E0215030408040E1F700C00000892F81
:100D2000B29B07C0B39B05C091E0980F863970F362
:100D3000892F8639C8F5EFE4F3EC3197F1F700C05D
:100D40000000B29B33C0B399EBCF88818F5F88835B
:100D5000181708F4088388811F928F9385E690E026
:100D60009F938F938AE092E09F938F9346D42AE0DB
:100D700032E042E068E18AE54BD30F900F900F908C
:100D80000F900F900F9080E007C0EFE0F7E23197EF
:100D9000F1F700C00000892FB399C2CF91E0980FFE
:100DA0008E3198F3892FBCCF8FEF01C080E0DF91A7
:100DB000CF911F910F91089589E190E069DF8DD265
:100DC00080E091D229E630E041E060E085E220D386
:100DD00023E730E041E060E380E01AD327E140E020
:100DE00063E670E088E890E067DF811158C02BE38C
:100DF00040E062E670E088E990E05EDF81114FC07C
:100E000029EA30E041E068E103D329EB30E041E03A
:100E100060E280E0FDD223E040E061E670E088EC33
:100E200090E04ADF81113BC029ED30E041E068E10C
:100E3000EFD229ED30E041E060E280E0E9D22FEF2F
:100E40004AE060E670E089EE90E036DF811127C06D
:100E500063E272E085E292E09CDA27E140E065E23D
:100E600072E08EEF90E028DF811119C02BE340E0A3
:100E700063E272E083E191E01FDF811110C027E09F
:100E800041E064E272E088E291E016DF811107C080
:100E90002FEF4EE164E670E08DE391E00DDF089501
:100EA0001F93CF93DF93EC01162F48D6811719F0CB
:100EB000612FCE014BD6DF91CF911F9108956091A4
:100EC00023028091250291DA80912402E2DA609176
:100ED000630080E190E0E4DF6091620081E190E0F6
:100EE000DFDF6091610082E190E0DADF6091600015
:100EF00083E190E0D5DF6091640080E290E0D0DF94
:100F0000089581B3806181BB82B38F7E82BB89E10A
:100F100090E0BEDE8FE19EE40197F1F700C0000093
:100F200089E190E0B5DE9DD180E0DDD122E531E0C0
:100F300042E060E080E06CD229E531E041E068E128
:100F400080E066D22EE631E041E060E280E060D2EF
:100F500023E831E041E060E380E05AD210DA87B361
:100F60008B7F87BB88B38C6088BB85E083BF89B7E4
:100F7000816089BF87B3826087BB83E88FBD89E0CA
:100F80008EBD1BBC1ABC80E190E0D8D58093630075
:100F900081E190E0D3D58093620082E190E0CED5EC
:100FA0008093610083E190E0C9D58093600080E286
:100FB00090E0C4D58093640078949FEF23ED30E3F4
:100FC000915020403040E1F700C0000080E08BD11C
:100FD00063E272E085E292E0DCD9809125021F9203
:100FE0008F9388E991E09F938F93CAE0D2E0DF93DB
:100FF000CF9303D39E0146E060E080E009D2809168
:1010000023021F928F938CE991E09F938F93DF933C
:10101000CF93F3D29E0144E060E180E4F9D184E211
:1010200092E027DA809124022DB73EB7245F3F4F2C
:101030000FB6F8943EBF0FBE2DBF883088F490E005
:1010400001979C01220F331F280F391F220F331FD6
:10105000220F331F22553E4F42E062E383E0D8D196
:101060008091610080FF04C09FE790930A0203C053
:1010700090E290930A0281FF04C08EE780930C02F5
:1010800003C080E280930C02EAE0F2E080E2818318
:1010900013829F0141E060E08EE6BAD19091250273
:1010A0008CE30091230210E0899F000D111D112493
:1010B00090916300C0916200D0E0899FC00DD11D66
:1010C000112480916100882309F451C090911F027E
:1010D00091FD4DC06091600070E09E01201B310BBE
:1010E0006217730708F443C080FF16C00C171D0772
:1010F00098F4986090931F02CE01861B970B98017D
:10110000281B390B4FEF429FC001439F900D1124C4
:1011100046D2862F58DD21C081FF1FC09460909376
:101120001F02F12C0CC084EF91E0B2DD3FEF8EE99D
:1011300094E2315080409040E1F700C0000080917F
:101140001F0281FD04C0F3942AE02F1560F722EA04
:1011500031E042E062E383E05BD13FEF81E19AE777
:10116000315080409040E1F700C000000AC02FEFEE
:1011700033E284EF215030408040E1F700C00000AE
:10118000AFD0C017D10708F023CF10921F0220CF95
:101190001F920F920FB60F9211242F933F934F93EC
:1011A0005F936F937F938F939F93AF93BF93EF93CF
:1011B000FF9313BEB39909C080911F02982F9C70B2
:1011C00019F0826080931F0288D0B2992EC0B39923
:1011D00008C0F2DD89E190E05BDD80E084D06FDE65
:1011E00022C08AB59BB5892B19F080E0ECDC1BC0CE
:1011F00080916400E8DC80E00AC02FE738E381E0FA
:10120000215030408040E1F700C00000892FB299A2
:1012100005C091E0980F843184F301C0982F943178
:1012200014F08FEFD0DCB29BFECF85E083BFFF913F
:10123000EF91BF91AF919F918F917F916F915F914E
:101240004F913F912F910F900FBE0F901F901895C7
:101250008093200221E040E252E060E088E751DB29
:1012600008958FE19EE40197F1F700C000008EEA37
:10127000EFDF85EDEDDF80E8EBDF88EAE9DF8FE384
:10128000E7DF83EDE5DF80E0E3DF80E4E1DF8DE8A9
:10129000DFDF84E1DDDF80E2DBDF80E0D9DF81EAD0
:1012A000D7DF80ECD5DF8AEDD3DF82E1D1DF81E8C3
:1012B000CFDF8FE0CDDF89EDCBDF81EFC9DF8BEDB5
:1012C000C7DF80E4C5DF84EAC3DF86EAC1DF8EE2E0
:1012D000BFDF8FEABDDF80E008958FEAB9DF0895B0
:1012E0008EEAB6DF08951F93CF93DF93CDB7DEB7B5
:1012F000C058D1090FB6F894DEBF0FBECDBF182F6E
:1013000081111FEF81E2A4DF80E0A2DF8FE7A0DF81
:1013100082E29EDF80E09CDF87E09ADF612F70E051
:1013200040E850E0CE01019661D110E008C020E80D
:10133000AE014F5F5F4F60E488E7E3DA1F5F18306C
:10134000B0F3C058DF4F0FB6F894DEBF0FBECDBF6D
:10135000DF91CF911F910895EF92FF920F931F930A
:10136000CF93DF93F82E062F142FE90187E08F1516
:1013700020F40F2EF7E0FF2EF02D00230CF40FE7E2
:1013800011230CF41FE740E013C0842F90E0DE012E
:10139000A80FB91F2C91E12FF0E0E01BF109E81B29
:1013A000F90B3197EC0FFD1F80818C9320834F5FE9
:1013B000642F70E0212F30E0201B3109C9019923EF
:1013C0000CF401969595879568177907F4F281E2F8
:1013D0003FDF0F2EFFE7EF2EF02D8E2D811B38DF24
:1013E0008E2D801B35DF82E233DF8F2D31DF81E0F0
:1013F0008F0D2EDF212F201B2F5FAE0160E488E7C9
:1014000080DADF91CF911F910F91FF90EF900895B7
:101410005F926F927F928F929F92AF92BF92CF9284
:10142000DF92EF92FF920F931F93CF93DF93CDB78D
:10143000DEB7C058D1090FB6F894DEBF0FBECDBFDE
:10144000582E142F6901662E669466946694FE01E8
:10145000319680E8DF011D928A95E9F7B12C85C0AD
:10146000FE01319680E8DF011D928A95E9F7712C23
:10147000912C6BC0BFEBB81510F480EC880EE12EF8
:10148000F12C88E090E0B7019ED0892B31F488E000
:1014900090E0B70198D0062F06C088E090E0B70131
:1014A00092D001E0060FA12C4AC0882D90E08097D1
:1014B000FC01EE0FFF1FEE0FFF1FE80FF91FEA0DF3
:1014C000F11DEA5DFF4FE49120E030E029C08B2D53
:1014D00090E0880F991F880F991F880F991FB701F7
:1014E00072D0620F219F902D1124981B892F0AF42E
:1014F00080E04FEF50E0DA0102C0AA0FBB1F8A95CF
:10150000E2F7CD014E2F50E002C0559547956A9500
:10151000E2F740FF02C03A2B02C0809538232F5FCC
:101520002017A8F2412F50E0632F70E081E090E097
:101530008C0F9D1F890D911D59D0910EA394B4E07D
:10154000BA1508F0B2CF93947394F601E70DF11D2C
:10155000808081108FCF492D450D9E012F5F3F4F19
:10156000652D8B2D860DF8DEB394B11608F478CF77
:10157000C058DF4F0FB6F894DEBF0FBECDBFDF916E
:10158000CF911F910F91FF90EF90DF90CF90BF9080
:10159000AF909F908F907F906F905F900895AA1B5F
:1015A000BB1B51E107C0AA1FBB1FA617B70710F04E
:1015B000A61BB70B881F991F5A95A9F78095909580
:1015C000BC01CD01089597FB072E16F4009406D0B8
:1015D00077FD08D0E4DF07FC05D03EF490958195B7
:1015E0009F4F0895709561957F4F0895DC0101C06C
:1015F0006D9341505040E0F70895AEE0B0E0E2E076
:10160000FBE0BFC20D891E8986E08C831A830983A3
:101610008FEF9FE79E838D83AE01475E5F4F6F899B
:10162000788DCE01019608D0EF81F885E00FF11F8B
:1016300010822E96E4E0C1C2ABE0B0E0E1E2FBE054
:1016400092C26C017B018A01FC01178216828381A0
:1016500081FFBFC1CE0101963C01F6019381F701E4
:1016600093FD859193FF81917F01882309F4ADC19A
:10167000853239F493FD859193FF81917F01853205
:1016800021F4B60190E0C0D1E8CF912C212C312C6F
:10169000FFE1F315D8F08B3279F038F4803279F02D
:1016A0008332A1F4232D20611DC08D3261F080337F
:1016B00069F4232D216016C0832D8260382EE32D1E
:1016C000E4603E2E2AC0F32DF8601DC037FC2DC00B
:1016D00020ED280F2A3040F08E32B9F436FC75C167
:1016E000232D2064322E19C036FE06C08AE0989E53
:1016F000200D1124922E11C0EAE02E9E200D1124FF
:10170000222EF32DF0623F2E08C08C3621F4832D5B
:101710008068382E02C0883641F4F70193FD859128
:1017200093FF81917F018111B3CF982F9F7D9554B5
:10173000933028F40C5F1F4F9FE399830DC08336CD
:1017400031F0833771F0833509F055C020C0F801BE
:10175000808189830E5F1F4F88248394912C5301CD
:1017600012C02801F2E04F0E511CF801A080B18098
:1017700036FE03C0692D70E002C06FEF7FEFC50138
:1017800038D14C018201F32DFF773F2E15C028017F
:1017900022E0420E511CF801A080B18036FE03C049
:1017A000692D70E002C06FEF7FEFC50117D14C01CA
:1017B000F32DF0683F2E820133FC19C0822D90E09A
:1017C00088169906A0F4B60180E290E01DD12A9413
:1017D000F5CFF50137FC859137FE81915F01B601A8
:1017E00090E012D121102A9421E0821A91088114EC
:1017F000910479F7E1C0843611F0893639F5F801A2
:1018000037FE07C060817181828193810C5F1F4F19
:1018100008C060817181072E000C880B990B0E5F48
:101820001F4FF32DFF763F2E97FF09C090958095AF
:10183000709561957F4F8F4F9F4FF0683F2E2AE044
:1018400030E0A3011DD1882E861844C0853731F4BD
:10185000232D2F7EB22E2AE030E025C0932D997FD4
:10186000B92E8F36C1F018F4883579F0AEC08037C4
:1018700019F0883721F0A9C0E92FE061BE2EB4FE2F
:101880000DC0FB2DF460BF2E09C034FE0AC0292F05
:101890002660B22E06C028E030E005C020E130E02E
:1018A00002C020E132E0F801B7FE07C0608171811B
:1018B000828193810C5F1F4F06C06081718180E03F
:1018C00090E00E5F1F4FA301DBD0882E8618FB2D02
:1018D000FF773F2E36FE0DC0232D2E7FA22E8914BA
:1018E00058F434FE0BC032FC09C0832D8E7EA82E26
:1018F00005C0B82CA32C03C0B82C01C0B92CA4FE81
:101900000FC0FE01E80DF11D8081803321F49A2D76
:10191000997EA92E09C0A2FE06C0B394B39404C058
:101920008A2D867809F0B394A3FC10C0A0FE06C0EF
:10193000B21480F4280C922C9B180DC0B21458F4E9
:10194000B60180E290E060D0B394F8CFB21418F4FE
:101950002B1802C0982C212CA4FE0FC0B60180E3E6
:1019600090E052D0A2FE16C0A1FC03C088E790E030
:1019700002C088E590E0B6010CC08A2D867851F04F
:10198000A1FE02C08BE201C080E2A7FC8DE2B6019D
:1019900090E03AD0891430F4B60180E390E034D07E
:1019A0009A94F8CF8A94F301E80DF11D8081B60175
:1019B00090E02AD08110F6CF222009F44ECEB60155
:1019C00080E290E021D02A94F7CFF60186819781BA
:1019D00002C08FEF9FEF2B96E2E1E1C0FC01059082
:1019E000615070400110D8F7809590958E0F9F1F21
:1019F0000895FC016150704001900110D8F7809566
:101A000090958E0F9F1F08950F931F93CF93DF9391
:101A1000FB01238121FD03C08FEF9FEF2CC022FF2C
:101A200016C046815781248135814217530744F4FB
:101A3000A081B1819D012F5F3F4F318320838C9323
:101A4000268137812F5F3F4F3783268314C08B0158
:101A5000EC01FB010084F185E02D0995892BE1F66D
:101A6000D80116968D919C911797019617969C9385
:101A70008E931697CE01DF91CF911F910F9108950C
:101A8000FA01AA27283051F1203181F1E8946F93AF
:101A90006E7F6E5F7F4F8F4F9F4FAF4FB1E03ED055
:101AA000B4E03CD0670F781F891F9A1FA11D680FF3
:101AB000791F8A1F911DA11D6A0F711D811D911D26
:101AC000A11D20D009F468943F912AE0269F11249B
:101AD0003019305D3193DEF6CF010895462F4770FF
:101AE000405D4193B3E00FD0C9F7F6CF462F4F705A
:101AF000405D4A3318F0495D31FD4052419302D0B8
:101B0000A9F7EACFB4E0A69597958795779567955D
:101B1000BA95C9F700976105710508959B01AC015D
:101B20000A2E06945795479537952795BA95C9F784
:101B3000620F731F841F951FA01D0895E199FECFAA
:101B40009FBB8EBBE09A99278DB30895262FE1990C
:101B5000FECF9FBB8EBB2DBB0FB6F894E29AE19AE5
:101B60000FBE019608952F923F924F925F926F920F
:101B70007F928F929F92AF92BF92CF92DF92EF921D
:101B8000FF920F931F93CF93DF93CDB7DEB7CA1B9E
:101B9000DB0B0FB6F894DEBF0FBECDBF09942A88C9
:101BA000398848885F846E847D848C849B84AA8471
:101BB000B984C884DF80EE80FD800C811B81AA81FE
:101BC000B981CE0FD11D0FB6F894DEBF0FBECDBFC9
:081BD000ED010895F894FFCF28
:101BD8000A031A0A2F25337500CDE0F1F2F0EEE979
:101BE800EAE8002B20202020202020202020202070
:101BF8002020202020203E00C1F3E4E8EBFCEDE8A3
:101C0800EA2028F7E0F12900C1F3E4E8EBFCEDE86D
:101C1800EA2028ECE8ED2E2900302DE2FBEAEB2043
:101C2800312DF0E0F1F1E22E00322DE7E2F3EA2067
:101C3800332DE7E22BF1E200D0E5E6E8EC20E1F312
:101C4800E4E8EBFCEDE8EAE000202020202020205A
:101C5800202020202020202000C4EBE8F22E20F0B5
:101C6800E0F1F1E2E5F2E02028ECE8ED2900C2F02D
:101C7800E5ECFF2028F7E0F1292020202020202073
:101C8800202000C2F0E5ECFF2028ECE8ED2E29200A
:101C98002020202020202000C4E5EDFC20EDE5E4F4
:101CA800E5EBE820202020202020202000DFF0EA9B
:101CB800EEF1F2FC20EDEEF7EDE8EAE0202020203E
:101CC8002000C0E2F0EEF0E000C1F3E4E8EBFCED48
:101CD800E8EA2C20F120EAEEF2EEF0FBEC002020FE
:101CE800EFF0EEF1FBEFE0F2FCF1FF20EBE5E3EAC9
:101CF800EE2100C4F3E1E8F8EAE8ED2020202020F6
:101D080020202076302E3100253275003A253032D9
:101D18007500C4EEE1F0EEE520F3F2F0EE00CFEE50
:101D2800EDE5E4E5EBFCEDE8EA002020C2F2EEF098
:101D3800EDE8EA202000202020D1F0E5E4E0202092
:101D480020002020D7E5F2E2E5F0E3202000202063
:101D5800CFFFF2EDE8F6E02020002020D1F3E1E10A
:101D6800EEF2E0202000C2EEF1EAF0E5F1E5EDFC4C
:021D7800E50084
:00000001FF
